{"abi":[{"type":"constructor","inputs":[{"name":"_usdt","type":"address","internalType":"address"}],"stateMutability":"nonpayable"},{"type":"receive","stateMutability":"payable"},{"type":"function","name":"bnbToUsdtRate","inputs":[],"outputs":[{"name":"","type":"uint256","internalType":"uint256"}],"stateMutability":"view"},{"type":"function","name":"depositBNB","inputs":[],"outputs":[],"stateMutability":"payable"},{"type":"function","name":"depositUSDT","inputs":[{"name":"amount","type":"uint256","internalType":"uint256"}],"outputs":[],"stateMutability":"nonpayable"},{"type":"function","name":"getBNBAmountForUSDT","inputs":[{"name":"usdtAmount","type":"uint256","internalType":"uint256"}],"outputs":[{"name":"","type":"uint256","internalType":"uint256"}],"stateMutability":"view"},{"type":"function","name":"getReserves","inputs":[],"outputs":[{"name":"bnbReserve","type":"uint256","internalType":"uint256"},{"name":"usdtReserve","type":"uint256","internalType":"uint256"}],"stateMutability":"view"},{"type":"function","name":"getUSDTAmountForBNB","inputs":[{"name":"bnbAmount","type":"uint256","internalType":"uint256"}],"outputs":[{"name":"","type":"uint256","internalType":"uint256"}],"stateMutability":"view"},{"type":"function","name":"owner","inputs":[],"outputs":[{"name":"","type":"address","internalType":"address"}],"stateMutability":"view"},{"type":"function","name":"setRate","inputs":[{"name":"newRate","type":"uint256","internalType":"uint256"}],"outputs":[],"stateMutability":"nonpayable"},{"type":"function","name":"swapBNBForUSDT","inputs":[],"outputs":[],"stateMutability":"payable"},{"type":"function","name":"swapUSDTForBNB","inputs":[{"name":"usdtAmount","type":"uint256","internalType":"uint256"}],"outputs":[],"stateMutability":"nonpayable"},{"type":"function","name":"usdt","inputs":[],"outputs":[{"name":"","type":"address","internalType":"contract IERC20"}],"stateMutability":"view"},{"type":"function","name":"withdrawBNB","inputs":[{"name":"amount","type":"uint256","internalType":"uint256"}],"outputs":[],"stateMutability":"nonpayable"},{"type":"function","name":"withdrawUSDT","inputs":[{"name":"amount","type":"uint256","internalType":"uint256"}],"outputs":[],"stateMutability":"nonpayable"},{"type":"event","name":"Deposit","inputs":[{"name":"from","type":"address","indexed":true,"internalType":"address"},{"name":"amount","type":"uint256","indexed":false,"internalType":"uint256"}],"anonymous":false},{"type":"event","name":"RateUpdated","inputs":[{"name":"newRate","type":"uint256","indexed":false,"internalType":"uint256"}],"anonymous":false},{"type":"event","name":"SwapBNBToUSDT","inputs":[{"name":"user","type":"address","indexed":true,"internalType":"address"},{"name":"bnbAmount","type":"uint256","indexed":false,"internalType":"uint256"},{"name":"usdtAmount","type":"uint256","indexed":false,"internalType":"uint256"}],"anonymous":false},{"type":"event","name":"SwapUSDTToBNB","inputs":[{"name":"user","type":"address","indexed":true,"internalType":"address"},{"name":"usdtAmount","type":"uint256","indexed":false,"internalType":"uint256"},{"name":"bnbAmount","type":"uint256","indexed":false,"internalType":"uint256"}],"anonymous":false},{"type":"event","name":"Withdraw","inputs":[{"name":"to","type":"address","indexed":true,"internalType":"address"},{"name":"amount","type":"uint256","indexed":false,"internalType":"uint256"}],"anonymous":false}],"bytecode":{"object":"0x6080604052682086ac35105260000060025534801561001c575f5ffd5b50604051611581380380611581833981810160405281019061003e9190610121565b335f5f6101000a81548173ffffffffffffffffffffffffffffffffffffffff021916908373ffffffffffffffffffffffffffffffffffffffff1602179055508060015f6101000a81548173ffffffffffffffffffffffffffffffffffffffff021916908373ffffffffffffffffffffffffffffffffffffffff1602179055505061014c565b5f5ffd5b5f73ffffffffffffffffffffffffffffffffffffffff82169050919050565b5f6100f0826100c7565b9050919050565b610100816100e6565b811461010a575f5ffd5b50565b5f8151905061011b816100f7565b92915050565b5f60208284031215610136576101356100c3565b5b5f6101438482850161010d565b91505092915050565b611428806101595f395ff3fe6080604052600436106100c5575f3560e01c806342220f341161007e57806394087ece1161005857806394087ece14610235578063afda71281461023f578063c10e246b14610269578063e7c80f17146102a5576100cc565b806342220f34146101c5578063891f3a56146101cf5780638da5cb5b1461020b576100cc565b80630902f1ac146100d0578063127f4b2e146100fb5780632f48ab7d1461012357806334fcf4371461014d5780633e490043146101755780633ea521ef1461019d576100cc565b366100cc57005b5f5ffd5b3480156100db575f5ffd5b506100e46102cd565b6040516100f2929190610e47565b60405180910390f35b348015610106575f5ffd5b50610121600480360381019061011c9190610e9c565b610371565b005b34801561012e575f5ffd5b50610137610494565b6040516101449190610f41565b60405180910390f35b348015610158575f5ffd5b50610173600480360381019061016e9190610e9c565b6104b9565b005b348015610180575f5ffd5b5061019b60048036038101906101969190610e9c565b6105ca565b005b3480156101a8575f5ffd5b506101c360048036038101906101be9190610e9c565b6107aa565b005b6101cd610926565b005b3480156101da575f5ffd5b506101f560048036038101906101f09190610e9c565b610a04565b6040516102029190610f5a565b60405180910390f35b348015610216575f5ffd5b5061021f610a2d565b60405161022c9190610f93565b60405180910390f35b61023d610a51565b005b34801561024a575f5ffd5b50610253610c82565b6040516102609190610f5a565b60405180910390f35b348015610274575f5ffd5b5061028f600480360381019061028a9190610e9c565b610c88565b60405161029c9190610f5a565b60405180910390f35b3480156102b0575f5ffd5b506102cb60048036038101906102c69190610e9c565b610cb1565b005b5f5f4760015f9054906101000a900473ffffffffffffffffffffffffffffffffffffffff1673ffffffffffffffffffffffffffffffffffffffff166370a08231306040518263ffffffff1660e01b815260040161032a9190610f93565b602060405180830381865afa158015610345573d5f5f3e3d5ffd5b505050506040513d601f19601f820116820180604052508101906103699190610fc0565b915091509091565b5f5f9054906101000a900473ffffffffffffffffffffffffffffffffffffffff1673ffffffffffffffffffffffffffffffffffffffff163373ffffffffffffffffffffffffffffffffffffffff16146103ff576040517f08c379a00000000000000000000000000000000000000000000000000000000081526004016103f690611045565b60405180910390fd5b3373ffffffffffffffffffffffffffffffffffffffff166108fc8290811502906040515f60405180830381858888f19350505050158015610442573d5f5f3e3d5ffd5b503373ffffffffffffffffffffffffffffffffffffffff167f884edad9ce6fa2440d8a54cc123490eb96d2768479d49ff9c7366125a9424364826040516104899190610f5a565b60405180910390a250565b60015f9054906101000a900473ffffffffffffffffffffffffffffffffffffffff1681565b5f5f9054906101000a900473ffffffffffffffffffffffffffffffffffffffff1673ffffffffffffffffffffffffffffffffffffffff163373ffffffffffffffffffffffffffffffffffffffff1614610547576040517f08c379a000000000000000000000000000000000000000000000000000000000815260040161053e90611045565b60405180910390fd5b5f8111610589576040517f08c379a0000000000000000000000000000000000000000000000000000000008152600401610580906110ad565b60405180910390fd5b806002819055507fe65c987b2e4668e09ba867026921588005b2b2063607a1e7e7d91683c8f91b7b816040516105bf9190610f5a565b60405180910390a150565b5f811161060c576040517f08c379a000000000000000000000000000000000000000000000000000000000815260040161060390611115565b60405180910390fd5b5f600254670de0b6b3a7640000836106249190611160565b61062e91906111ce565b905080471015610673576040517f08c379a000000000000000000000000000000000000000000000000000000000815260040161066a90611248565b60405180910390fd5b60015f9054906101000a900473ffffffffffffffffffffffffffffffffffffffff1673ffffffffffffffffffffffffffffffffffffffff166323b872dd3330856040518463ffffffff1660e01b81526004016106d193929190611266565b6020604051808303815f875af11580156106ed573d5f5f3e3d5ffd5b505050506040513d601f19601f8201168201806040525081019061071191906112d0565b503373ffffffffffffffffffffffffffffffffffffffff166108fc8290811502906040515f60405180830381858888f19350505050158015610755573d5f5f3e3d5ffd5b503373ffffffffffffffffffffffffffffffffffffffff167fabb6cc3ec766a39865a0902864b10ea6b8c9c6fdff571a25814a25793d08eccd838360405161079e929190610e47565b60405180910390a25050565b5f5f9054906101000a900473ffffffffffffffffffffffffffffffffffffffff1673ffffffffffffffffffffffffffffffffffffffff163373ffffffffffffffffffffffffffffffffffffffff1614610838576040517f08c379a000000000000000000000000000000000000000000000000000000000815260040161082f90611045565b60405180910390fd5b60015f9054906101000a900473ffffffffffffffffffffffffffffffffffffffff1673ffffffffffffffffffffffffffffffffffffffff1663a9059cbb33836040518363ffffffff1660e01b81526004016108949291906112fb565b6020604051808303815f875af11580156108b0573d5f5f3e3d5ffd5b505050506040513d601f19601f820116820180604052508101906108d491906112d0565b503373ffffffffffffffffffffffffffffffffffffffff167f884edad9ce6fa2440d8a54cc123490eb96d2768479d49ff9c7366125a94243648260405161091b9190610f5a565b60405180910390a250565b5f5f9054906101000a900473ffffffffffffffffffffffffffffffffffffffff1673ffffffffffffffffffffffffffffffffffffffff163373ffffffffffffffffffffffffffffffffffffffff16146109b4576040517f08c379a00000000000000000000000000000000000000000000000000000000081526004016109ab90611045565b60405180910390fd5b3373ffffffffffffffffffffffffffffffffffffffff167fe1fffcc4923d04b559f4d29a8bfc6cda04eb5b0d3c460751c2402c5c5cc9109c346040516109fa9190610f5a565b60405180910390a2565b5f670de0b6b3a764000060025483610a1c9190611160565b610a2691906111ce565b9050919050565b5f5f9054906101000a900473ffffffffffffffffffffffffffffffffffffffff1681565b5f3411610a93576040517f08c379a0000000000000000000000000000000000000000000000000000000008152600401610a8a9061136c565b60405180910390fd5b5f670de0b6b3a764000060025434610aab9190611160565b610ab591906111ce565b90508060015f9054906101000a900473ffffffffffffffffffffffffffffffffffffffff1673ffffffffffffffffffffffffffffffffffffffff166370a08231306040518263ffffffff1660e01b8152600401610b129190610f93565b602060405180830381865afa158015610b2d573d5f5f3e3d5ffd5b505050506040513d601f19601f82011682018060405250810190610b519190610fc0565b1015610b92576040517f08c379a0000000000000000000000000000000000000000000000000000000008152600401610b89906113d4565b60405180910390fd5b60015f9054906101000a900473ffffffffffffffffffffffffffffffffffffffff1673ffffffffffffffffffffffffffffffffffffffff1663a9059cbb33836040518363ffffffff1660e01b8152600401610bee9291906112fb565b6020604051808303815f875af1158015610c0a573d5f5f3e3d5ffd5b505050506040513d601f19601f82011682018060405250810190610c2e91906112d0565b503373ffffffffffffffffffffffffffffffffffffffff167ff82ac6c049e79de25d4d8d7138b8b72e9c3ecd892fe2a99ea8549eabc82d7cdf3483604051610c77929190610e47565b60405180910390a250565b60025481565b5f600254670de0b6b3a764000083610ca09190611160565b610caa91906111ce565b9050919050565b5f5f9054906101000a900473ffffffffffffffffffffffffffffffffffffffff1673ffffffffffffffffffffffffffffffffffffffff163373ffffffffffffffffffffffffffffffffffffffff1614610d3f576040517f08c379a0000000000000000000000000000000000000000000000000000000008152600401610d3690611045565b60405180910390fd5b60015f9054906101000a900473ffffffffffffffffffffffffffffffffffffffff1673ffffffffffffffffffffffffffffffffffffffff166323b872dd3330846040518463ffffffff1660e01b8152600401610d9d93929190611266565b6020604051808303815f875af1158015610db9573d5f5f3e3d5ffd5b505050506040513d601f19601f82011682018060405250810190610ddd91906112d0565b503373ffffffffffffffffffffffffffffffffffffffff167fe1fffcc4923d04b559f4d29a8bfc6cda04eb5b0d3c460751c2402c5c5cc9109c82604051610e249190610f5a565b60405180910390a250565b5f819050919050565b610e4181610e2f565b82525050565b5f604082019050610e5a5f830185610e38565b610e676020830184610e38565b9392505050565b5f5ffd5b610e7b81610e2f565b8114610e85575f5ffd5b50565b5f81359050610e9681610e72565b92915050565b5f60208284031215610eb157610eb0610e6e565b5b5f610ebe84828501610e88565b91505092915050565b5f73ffffffffffffffffffffffffffffffffffffffff82169050919050565b5f819050919050565b5f610f09610f04610eff84610ec7565b610ee6565b610ec7565b9050919050565b5f610f1a82610eef565b9050919050565b5f610f2b82610f10565b9050919050565b610f3b81610f21565b82525050565b5f602082019050610f545f830184610f32565b92915050565b5f602082019050610f6d5f830184610e38565b92915050565b5f610f7d82610ec7565b9050919050565b610f8d81610f73565b82525050565b5f602082019050610fa65f830184610f84565b92915050565b5f81519050610fba81610e72565b92915050565b5f60208284031215610fd557610fd4610e6e565b5b5f610fe284828501610fac565b91505092915050565b5f82825260208201905092915050565b7f4e6f74206f776e657200000000000000000000000000000000000000000000005f82015250565b5f61102f600983610feb565b915061103a82610ffb565b602082019050919050565b5f6020820190508181035f83015261105c81611023565b9050919050565b7f52617465206d757374206265203e2030000000000000000000000000000000005f82015250565b5f611097601083610feb565b91506110a282611063565b602082019050919050565b5f6020820190508181035f8301526110c48161108b565b9050919050565b7f4d7573742073656e6420555344540000000000000000000000000000000000005f82015250565b5f6110ff600e83610feb565b915061110a826110cb565b602082019050919050565b5f6020820190508181035f83015261112c816110f3565b9050919050565b7f4e487b71000000000000000000000000000000000000000000000000000000005f52601160045260245ffd5b5f61116a82610e2f565b915061117583610e2f565b925082820261118381610e2f565b9150828204841483151761119a57611199611133565b5b5092915050565b7f4e487b71000000000000000000000000000000000000000000000000000000005f52601260045260245ffd5b5f6111d882610e2f565b91506111e383610e2f565b9250826111f3576111f26111a1565b5b828204905092915050565b7f496e73756666696369656e7420424e42206c69717569646974790000000000005f82015250565b5f611232601a83610feb565b915061123d826111fe565b602082019050919050565b5f6020820190508181035f83015261125f81611226565b9050919050565b5f6060820190506112795f830186610f84565b6112866020830185610f84565b6112936040830184610e38565b949350505050565b5f8115159050919050565b6112af8161129b565b81146112b9575f5ffd5b50565b5f815190506112ca816112a6565b92915050565b5f602082840312156112e5576112e4610e6e565b5b5f6112f2848285016112bc565b91505092915050565b5f60408201905061130e5f830185610f84565b61131b6020830184610e38565b9392505050565b7f4d7573742073656e6420424e42000000000000000000000000000000000000005f82015250565b5f611356600d83610feb565b915061136182611322565b602082019050919050565b5f6020820190508181035f8301526113838161134a565b9050919050565b7f496e73756666696369656e742055534454206c697175696469747900000000005f82015250565b5f6113be601b83610feb565b91506113c98261138a565b602082019050919050565b5f6020820190508181035f8301526113eb816113b2565b905091905056fea26469706673582212203eaebe0d00af306a3198422862fd3d28292792218f3f5b6baeb0f46d8c9cda6c64736f6c63430008210033","linkReferences":{}},"methodIdentifiers":{"bnbToUsdtRate()":"afda7128","depositBNB()":"42220f34","depositUSDT(uint256)":"e7c80f17","getBNBAmountForUSDT(uint256)":"c10e246b","getReserves()":"0902f1ac","getUSDTAmountForBNB(uint256)":"891f3a56","owner()":"8da5cb5b","setRate(uint256)":"34fcf437","swapBNBForUSDT()":"94087ece","swapUSDTForBNB(uint256)":"3e490043","usdt()":"2f48ab7d","withdrawBNB(uint256)":"127f4b2e","withdrawUSDT(uint256)":"3ea521ef"},"id":22}